:1000000009C016C015C014C013C012C011C010C062
:100010000FC01DC011241FBECFE9CDBF20E0A0E658
:10002000B0E001C01D92A436B207E1F749D0DFC0AD
:10003000E7CF82E087B98FEF86B9089516BE83E8CF
:100040008FBD83E083BF89B7826089BF08951F9207
:100050000F920FB60F9211242F938F939F93389B7B
:100060000CC084B195B1863F9340B8F484B195B18A
:100070000A9718F184B195B112C084B195B19093EB
:1000800063008093620083E087B99F918F912F91E5
:100090000F900FBE0F901F90189585EF93E09093EF
:1000A00061008093600082E087B99F918F912F91CA
:1000B0000F900FBE0F901F9018958AE090E0EFCF41
:1000C00080E886BD16BC83E087BB16BE93E89FBD63
:1000D00083BF89B7826089BF82E087B98FEF86B915
:1000E000789480E04091620050916300209160001C
:1000F0003091610024173507A4F58091620090913A
:1001000063002091600030916100821B930B829507
:100110009295907F9827807F98278F3F910511F0C7
:100120000CF05CC0809162009091630020916000AF
:1001300030916100821B930B97FD0FC0809162008C
:10014000909163002091600030916100821B930BBD
:100150008295807F883008F047C08FEFC19A86BFB4
:10016000C1CF4091620050916300209160003091B6
:100170006100421753079CF78091600090916100E5
:100180002091620030916300821B930B82959295BF
:10019000907F9827807F98278F3F910509F00CF575
:1001A0008091600090916100209162003091630025
:1001B000821B930B97FD0EC08091600090916100AF
:1001C0002091620030916300821B930B8295807FA7
:1001D000883008F480E0C19886BF84CF80E0C19A5F
:1001E000BECF8FEFC198F8CF8095C19AB8CFF89461
:0201F000FFCF3F
:00000001FF
